{
  "contractName": "AplusListings",
  "abi": [
    {
      "constant": true,
      "inputs": [],
      "name": "aplusEscrows",
      "outputs": [
        {
          "name": "",
          "type": "address"
        }
      ],
      "payable": false,
      "stateMutability": "view",
      "type": "function"
    },
    {
      "constant": true,
      "inputs": [
        {
          "name": "",
          "type": "uint256"
        }
      ],
      "name": "listedDataHashes",
      "outputs": [
        {
          "name": "",
          "type": "bytes32"
        }
      ],
      "payable": false,
      "stateMutability": "view",
      "type": "function"
    },
    {
      "constant": true,
      "inputs": [],
      "name": "linniaHub",
      "outputs": [
        {
          "name": "",
          "type": "address"
        }
      ],
      "payable": false,
      "stateMutability": "view",
      "type": "function"
    },
    {
      "constant": true,
      "inputs": [
        {
          "name": "",
          "type": "bytes32"
        }
      ],
      "name": "listings",
      "outputs": [
        {
          "name": "price",
          "type": "uint256"
        },
        {
          "name": "owner",
          "type": "address"
        }
      ],
      "payable": false,
      "stateMutability": "view",
      "type": "function"
    },
    {
      "inputs": [
        {
          "name": "_linniaHub",
          "type": "address"
        }
      ],
      "payable": false,
      "stateMutability": "nonpayable",
      "type": "constructor"
    },
    {
      "payable": false,
      "stateMutability": "nonpayable",
      "type": "fallback"
    },
    {
      "constant": false,
      "inputs": [
        {
          "name": "_aplusEscrows",
          "type": "address"
        }
      ],
      "name": "setupEscrowContract",
      "outputs": [],
      "payable": false,
      "stateMutability": "nonpayable",
      "type": "function"
    },
    {
      "constant": false,
      "inputs": [
        {
          "name": "dataHash",
          "type": "bytes32"
        },
        {
          "name": "price",
          "type": "uint256"
        }
      ],
      "name": "createListing",
      "outputs": [
        {
          "name": "",
          "type": "bool"
        }
      ],
      "payable": false,
      "stateMutability": "nonpayable",
      "type": "function"
    },
    {
      "constant": false,
      "inputs": [
        {
          "name": "dataHash",
          "type": "bytes32"
        }
      ],
      "name": "removeListing",
      "outputs": [
        {
          "name": "",
          "type": "bool"
        }
      ],
      "payable": false,
      "stateMutability": "nonpayable",
      "type": "function"
    },
    {
      "constant": true,
      "inputs": [
        {
          "name": "dataHash",
          "type": "bytes32"
        }
      ],
      "name": "getListing",
      "outputs": [
        {
          "name": "",
          "type": "uint256"
        },
        {
          "name": "",
          "type": "address"
        }
      ],
      "payable": false,
      "stateMutability": "view",
      "type": "function"
    },
    {
      "constant": true,
      "inputs": [],
      "name": "getListedDataHashes",
      "outputs": [
        {
          "name": "",
          "type": "bytes32[]"
        }
      ],
      "payable": false,
      "stateMutability": "view",
      "type": "function"
    }
  ],
  "bytecode": "0x608060405234801561001057600080fd5b50604051602080610ac383398101806040528101908080519060200190929190505050806000806101000a81548173ffffffffffffffffffffffffffffffffffffffff021916908373ffffffffffffffffffffffffffffffffffffffff16021790555050610a40806100836000396000f300608060405260043610610099576000357c0100000000000000000000000000000000000000000000000000000000900463ffffffff1680630b8fecd4146100a8578063175c0d16146101145780631ebe329e1461018c578063377af349146101cf5780634bbcdbdd14610226578063550ee1331461026f5780636429a93f146102b8578063c18b8db41461030f578063c2f0d64614610387575b3480156100a557600080fd5b50005b3480156100b457600080fd5b506100bd6103da565b6040518080602001828103825283818151815260200191508051906020019060200280838360005b838110156101005780820151818401526020810190506100e5565b505050509050019250505060405180910390f35b34801561012057600080fd5b506101436004803603810190808035600019169060200190929190505050610436565b604051808381526020018273ffffffffffffffffffffffffffffffffffffffff1673ffffffffffffffffffffffffffffffffffffffff1681526020019250505060405180910390f35b34801561019857600080fd5b506101cd600480360381019080803573ffffffffffffffffffffffffffffffffffffffff1690602001909291905050506104a0565b005b3480156101db57600080fd5b506101e46104e4565b604051808273ffffffffffffffffffffffffffffffffffffffff1673ffffffffffffffffffffffffffffffffffffffff16815260200191505060405180910390f35b34801561023257600080fd5b506102516004803603810190808035906020019092919050505061050a565b60405180826000191660001916815260200191505060405180910390f35b34801561027b57600080fd5b5061029e600480360381019080803560001916906020019092919050505061052d565b604051808215151515815260200191505060405180910390f35b3480156102c457600080fd5b506102cd610585565b604051808273ffffffffffffffffffffffffffffffffffffffff1673ffffffffffffffffffffffffffffffffffffffff16815260200191505060405180910390f35b34801561031b57600080fd5b5061033e60048036038101908080356000191690602001909291905050506105aa565b604051808381526020018273ffffffffffffffffffffffffffffffffffffffff1673ffffffffffffffffffffffffffffffffffffffff1681526020019250505060405180910390f35b34801561039357600080fd5b506103c06004803603810190808035600019169060200190929190803590602001909291905050506105ee565b604051808215151515815260200191505060405180910390f35b6060600380548060200260200160405190810160405280929190818152602001828054801561042c57602002820191906000526020600020905b81546000191681526020019060010190808311610414575b5050505050905090565b6000806002600084600019166000191681526020019081526020016000206000015460026000856000191660001916815260200190815260200160002060010160009054906101000a900473ffffffffffffffffffffffffffffffffffffffff1691509150915091565b80600160006101000a81548173ffffffffffffffffffffffffffffffffffffffff021916908373ffffffffffffffffffffffffffffffffffffffff16021790555050565b600160009054906101000a900473ffffffffffffffffffffffffffffffffffffffff1681565b60038181548110151561051957fe5b906000526020600020016000915090505481565b60006002600083600019166000191681526020019081526020016000206000808201600090556001820160006101000a81549073ffffffffffffffffffffffffffffffffffffffff0219169055505060019050919050565b6000809054906101000a900473ffffffffffffffffffffffffffffffffffffffff1681565b60026020528060005260406000206000915090508060000154908060010160009054906101000a900473ffffffffffffffffffffffffffffffffffffffff16905082565b6000806105fa84610747565b9050600073ffffffffffffffffffffffffffffffffffffffff1660026000866000191660001916815260200190815260200160002060010160009054906101000a900473ffffffffffffffffffffffffffffffffffffffff1673ffffffffffffffffffffffffffffffffffffffff1614156106a25760038490806001815401808255809150509060018203906000526020600020016000909192909190915090600019169055505b60408051908101604052808481526020018273ffffffffffffffffffffffffffffffffffffffff168152506002600086600019166000191681526020019081526020016000206000820151816000015560208201518160010160006101000a81548173ffffffffffffffffffffffffffffffffffffffff021916908373ffffffffffffffffffffffffffffffffffffffff160217905550905050600191505092915050565b60008060008060009054906101000a900473ffffffffffffffffffffffffffffffffffffffff1673ffffffffffffffffffffffffffffffffffffffff1663fc0d561e6040518163ffffffff167c0100000000000000000000000000000000000000000000000000000000028152600401602060405180830381600087803b1580156107d157600080fd5b505af11580156107e5573d6000803e3d6000fd5b505050506040513d60208110156107fb57600080fd5b810190808051906020019092919050505091508173ffffffffffffffffffffffffffffffffffffffff166336880b82856040518263ffffffff167c0100000000000000000000000000000000000000000000000000000000028152600401808260001916600019168152602001915050602060405180830381600087803b15801561088557600080fd5b505af1158015610899573d6000803e3d6000fd5b505050506040513d60208110156108af57600080fd5b81019080805190602001909291905050509050600073ffffffffffffffffffffffffffffffffffffffff168173ffffffffffffffffffffffffffffffffffffffff1614151515610967576040517f08c379a00000000000000000000000000000000000000000000000000000000081526004018080602001828103825260108152602001807f5265636f7264206e6f7420666f756e640000000000000000000000000000000081525060200191505060405180910390fd5b8073ffffffffffffffffffffffffffffffffffffffff163373ffffffffffffffffffffffffffffffffffffffff16141515610a0a576040517f08c379a00000000000000000000000000000000000000000000000000000000081526004018080602001828103825260178152602001807f596f7520646f6e2774206f776e2074686174206461746100000000000000000081525060200191505060405180910390fd5b80925050509190505600a165627a7a723058206c056533d017d3db9ab7e065a3458558121250b6fa0a310496c11ff531140d370029",
  "source": "pragma solidity 0.4.24;\n\nimport \"./linnia-contracts/LinniaHub.sol\";\nimport \"./linnia-contracts/LinniaRecords.sol\";\nimport \"./linnia-contracts/LinniaUsers.sol\";\nimport \"./AplusEscrows.sol\";\n\ncontract AplusListings {\n    LinniaHub public linniaHub;\n    AplusEscrows public aplusEscrows;\n\n    struct Listing {\n        uint price;\n        address owner;\n    }\n\n    // mapping [dataHash] -> Listing\n    mapping(bytes32 => Listing) public listings;\n\n    // array of listed dataHashes\n    bytes32[] public listedDataHashes;\n\n    function () public { }\n    constructor(LinniaHub _linniaHub) public {\n        linniaHub = _linniaHub;\n    }\n\n    function setupEscrowContract(AplusEscrows _aplusEscrows) public {\n        aplusEscrows = _aplusEscrows;\n    }\n\n    function getAndVerifyOwner(bytes32 dataHash) \n        internal\n        view\n        returns (address)\n    {\n        //Get LinniaRecords\n        LinniaRecords records = linniaHub.recordsContract();\n\n        //Get the owner of the dataHash\n        address owner = records.recordOwnerOf(dataHash);\n        \n        //Check that the datahash exists in the Linnia Records\n        require((owner != address(0)), \"Record not found\");\n\n        //Check that msg.sender is the owner of the record\n        require((msg.sender == owner), \"You don't own that data\");\n\n        return owner;\n        \n    }\n\n    function createListing(bytes32 dataHash, uint price)\n        external\n        returns (bool)\n    {\n        address owner = getAndVerifyOwner(dataHash);\n\n        //Add the dataHash to the listed array if does not exists\n        if(listings[dataHash].owner == address(0)){\n            listedDataHashes.push(dataHash);\n        }\n\n        //Create the listing\n        listings[dataHash] = Listing({\n            price: price,\n            owner: owner\n        });\n\n        return true;\n    }\n\n    function removeListing(bytes32 dataHash)\n        external\n        returns (bool)\n    {\n        //address owner = getAndVerifyOwner(dataHash);\n        //TODO check that the listing has no open escows in the escrow contract\n\n        //Remove the listing\n        delete listings[dataHash];\n        return true;\n    }\n\n    function getListing(bytes32 dataHash) public view returns(uint, address)\n    {\n        return (listings[dataHash].price, listings[dataHash].owner);\n    }\n\n    function getListedDataHashes() public view returns(bytes32[])\n    {\n        return listedDataHashes;\n    }\n}",
  "sourcePath": "/Users/vrotmanh/Desktop/Eth-Berlin/aplus-ddex/contracts/AplusListings.sol",
  "compiler": {
    "name": "solc",
    "version": "0.4.24+commit.e67f0147.Emscripten.clang"
  },
  "schemaVersion": "2.0.1",
  "updatedAt": "2018-09-07T23:08:04.043Z"
}