{
  "contractName": "AplusEscrows",
  "abi": [
    {
      "constant": true,
      "inputs": [
        {
          "name": "",
          "type": "bytes32"
        },
        {
          "name": "",
          "type": "uint256"
        }
      ],
      "name": "buyersByDataHash",
      "outputs": [
        {
          "name": "",
          "type": "address"
        }
      ],
      "payable": false,
      "stateMutability": "view",
      "type": "function"
    },
    {
      "constant": true,
      "inputs": [
        {
          "name": "",
          "type": "address"
        },
        {
          "name": "",
          "type": "uint256"
        }
      ],
      "name": "dataHashesBySeller",
      "outputs": [
        {
          "name": "",
          "type": "bytes32"
        }
      ],
      "payable": false,
      "stateMutability": "view",
      "type": "function"
    },
    {
      "constant": true,
      "inputs": [
        {
          "name": "",
          "type": "bytes32"
        },
        {
          "name": "",
          "type": "address"
        }
      ],
      "name": "escrows",
      "outputs": [
        {
          "name": "buyer",
          "type": "address"
        },
        {
          "name": "seller",
          "type": "address"
        },
        {
          "name": "paid",
          "type": "bool"
        },
        {
          "name": "fulfilled",
          "type": "bool"
        },
        {
          "name": "tokensClaimed",
          "type": "bool"
        },
        {
          "name": "listingID",
          "type": "bytes32"
        },
        {
          "name": "publicEncKey",
          "type": "string"
        }
      ],
      "payable": false,
      "stateMutability": "view",
      "type": "function"
    },
    {
      "constant": true,
      "inputs": [],
      "name": "linniaHub",
      "outputs": [
        {
          "name": "",
          "type": "address"
        }
      ],
      "payable": false,
      "stateMutability": "view",
      "type": "function"
    },
    {
      "constant": true,
      "inputs": [
        {
          "name": "",
          "type": "address"
        },
        {
          "name": "",
          "type": "uint256"
        }
      ],
      "name": "dataHashesByBuyer",
      "outputs": [
        {
          "name": "",
          "type": "bytes32"
        }
      ],
      "payable": false,
      "stateMutability": "view",
      "type": "function"
    },
    {
      "inputs": [
        {
          "name": "_aplusListings",
          "type": "address"
        },
        {
          "name": "_linniaHub",
          "type": "address"
        }
      ],
      "payable": false,
      "stateMutability": "nonpayable",
      "type": "constructor"
    },
    {
      "constant": false,
      "inputs": [
        {
          "name": "dataHash",
          "type": "bytes32"
        },
        {
          "name": "publicEncKey",
          "type": "string"
        }
      ],
      "name": "createEscrow",
      "outputs": [],
      "payable": true,
      "stateMutability": "payable",
      "type": "function"
    },
    {
      "constant": false,
      "inputs": [
        {
          "name": "dataHash",
          "type": "bytes32"
        }
      ],
      "name": "revokeEscrow",
      "outputs": [],
      "payable": false,
      "stateMutability": "nonpayable",
      "type": "function"
    },
    {
      "constant": false,
      "inputs": [
        {
          "name": "dataHash",
          "type": "bytes32"
        },
        {
          "name": "viewer",
          "type": "address"
        }
      ],
      "name": "claimMoney",
      "outputs": [],
      "payable": false,
      "stateMutability": "nonpayable",
      "type": "function"
    },
    {
      "constant": true,
      "inputs": [
        {
          "name": "dataHash",
          "type": "bytes32"
        },
        {
          "name": "buyer",
          "type": "address"
        }
      ],
      "name": "tokensAlreadyClaimed",
      "outputs": [
        {
          "name": "",
          "type": "bool"
        }
      ],
      "payable": false,
      "stateMutability": "view",
      "type": "function"
    },
    {
      "constant": false,
      "inputs": [
        {
          "name": "dataHash",
          "type": "bytes32"
        },
        {
          "name": "buyer",
          "type": "address"
        }
      ],
      "name": "claimTokens",
      "outputs": [],
      "payable": false,
      "stateMutability": "nonpayable",
      "type": "function"
    },
    {
      "constant": true,
      "inputs": [
        {
          "name": "buyer",
          "type": "address"
        }
      ],
      "name": "getEscrowDataHashesByBuyer",
      "outputs": [
        {
          "name": "",
          "type": "bytes32[]"
        }
      ],
      "payable": false,
      "stateMutability": "view",
      "type": "function"
    },
    {
      "constant": true,
      "inputs": [
        {
          "name": "seller",
          "type": "address"
        }
      ],
      "name": "getEscrowDataHashesBySeller",
      "outputs": [
        {
          "name": "",
          "type": "bytes32[]"
        }
      ],
      "payable": false,
      "stateMutability": "view",
      "type": "function"
    },
    {
      "constant": true,
      "inputs": [
        {
          "name": "dataHash",
          "type": "bytes32"
        },
        {
          "name": "buyer",
          "type": "address"
        }
      ],
      "name": "getEscrowForBuyer",
      "outputs": [
        {
          "name": "",
          "type": "address"
        },
        {
          "name": "",
          "type": "address"
        },
        {
          "name": "",
          "type": "bool"
        },
        {
          "name": "",
          "type": "bool"
        },
        {
          "name": "",
          "type": "bool"
        },
        {
          "name": "",
          "type": "bytes32"
        },
        {
          "name": "",
          "type": "string"
        }
      ],
      "payable": false,
      "stateMutability": "view",
      "type": "function"
    },
    {
      "constant": true,
      "inputs": [
        {
          "name": "dataHash",
          "type": "bytes32"
        }
      ],
      "name": "getBuyersForDataHash",
      "outputs": [
        {
          "name": "",
          "type": "address[]"
        }
      ],
      "payable": false,
      "stateMutability": "view",
      "type": "function"
    }
  ],
  "bytecode": "0x608060405234801561001057600080fd5b50604051604080611f85833981018060405281019080805190602001909291908051906020019092919050505081600560006101000a81548173ffffffffffffffffffffffffffffffffffffffff021916908373ffffffffffffffffffffffffffffffffffffffff160217905550806000806101000a81548173ffffffffffffffffffffffffffffffffffffffff021916908373ffffffffffffffffffffffffffffffffffffffff1602179055505050611eb6806100cf6000396000f3006080604052600436106100d0576000357c0100000000000000000000000000000000000000000000000000000000900463ffffffff1680630481cb1b146100d55780631da095e41461013e57806323bf361a146101a857806336848de0146102235780633c9ae60614610274578063411d1df5146102dd57806344ebe94b1461043d578063559293391461046e5780636429a93f146104bf57806366bd467a1461051657806376e30ea1146106765780638db8b6171461070e5780638ecfb77e14610794578063a0bcb640146107fd575b600080fd5b3480156100e157600080fd5b506101246004803603810190808035600019169060200190929190803573ffffffffffffffffffffffffffffffffffffffff169060200190929190505050610895565b604051808215151515815260200191505060405180910390f35b6101a66004803603810190808035600019169060200190929190803590602001908201803590602001908080601f0160208091040260200160405190810160405280939291908181526020018383808284378201915050505050509192919290505050610908565b005b3480156101b457600080fd5b506101e1600480360381019080803560001916906020019092919080359060200190929190505050610dcf565b604051808273ffffffffffffffffffffffffffffffffffffffff1673ffffffffffffffffffffffffffffffffffffffff16815260200191505060405180910390f35b34801561022f57600080fd5b506102726004803603810190808035600019169060200190929190803573ffffffffffffffffffffffffffffffffffffffff169060200190929190505050610e1c565b005b34801561028057600080fd5b506102bf600480360381019080803573ffffffffffffffffffffffffffffffffffffffff16906020019092919080359060200190929190505050611237565b60405180826000191660001916815260200191505060405180910390f35b3480156102e957600080fd5b5061032c6004803603810190808035600019169060200190929190803573ffffffffffffffffffffffffffffffffffffffff169060200190929190505050611267565b604051808873ffffffffffffffffffffffffffffffffffffffff1673ffffffffffffffffffffffffffffffffffffffff1681526020018773ffffffffffffffffffffffffffffffffffffffff1673ffffffffffffffffffffffffffffffffffffffff168152602001861515151581526020018515151515815260200184151515158152602001836000191660001916815260200180602001828103825283818151815260200191508051906020019080838360005b838110156103fc5780820151818401526020810190506103e1565b50505050905090810190601f1680156104295780820380516001836020036101000a031916815260200191505b509850505050505050505060405180910390f35b34801561044957600080fd5b5061046c60048036038101908080356000191690602001909291905050506113b5565b005b34801561047a57600080fd5b506104bd6004803603810190808035600019169060200190929190803573ffffffffffffffffffffffffffffffffffffffff169060200190929190505050611534565b005b3480156104cb57600080fd5b506104d46117a7565b604051808273ffffffffffffffffffffffffffffffffffffffff1673ffffffffffffffffffffffffffffffffffffffff16815260200191505060405180910390f35b34801561052257600080fd5b506105656004803603810190808035600019169060200190929190803573ffffffffffffffffffffffffffffffffffffffff1690602001909291905050506117cc565b604051808873ffffffffffffffffffffffffffffffffffffffff1673ffffffffffffffffffffffffffffffffffffffff1681526020018773ffffffffffffffffffffffffffffffffffffffff1673ffffffffffffffffffffffffffffffffffffffff168152602001861515151581526020018515151515815260200184151515158152602001836000191660001916815260200180602001828103825283818151815260200191508051906020019080838360005b8381101561063557808201518184015260208101905061061a565b50505050905090810190601f1680156106625780820380516001836020036101000a031916815260200191505b509850505050505050505060405180910390f35b34801561068257600080fd5b506106b7600480360381019080803573ffffffffffffffffffffffffffffffffffffffff169060200190929190505050611973565b6040518080602001828103825283818151815260200191508051906020019060200280838360005b838110156106fa5780820151818401526020810190506106df565b505050509050019250505060405180910390f35b34801561071a57600080fd5b5061073d6004803603810190808035600019169060200190929190505050611a0e565b6040518080602001828103825283818151815260200191508051906020019060200280838360005b83811015610780578082015181840152602081019050610765565b505050509050019250505060405180910390f35b3480156107a057600080fd5b506107df600480360381019080803573ffffffffffffffffffffffffffffffffffffffff16906020019092919080359060200190929190505050611ab7565b60405180826000191660001916815260200191505060405180910390f35b34801561080957600080fd5b5061083e600480360381019080803573ffffffffffffffffffffffffffffffffffffffff169060200190929190505050611ae7565b6040518080602001828103825283818151815260200191508051906020019060200280838360005b83811015610881578082015181840152602081019050610866565b505050509050019250505060405180910390f35b600060016000846000191660001916815260200190815260200160002060008373ffffffffffffffffffffffffffffffffffffffff1673ffffffffffffffffffffffffffffffffffffffff16815260200190815260200160002060010160169054906101000a900460ff16905092915050565b600080600560009054906101000a900473ffffffffffffffffffffffffffffffffffffffff1673ffffffffffffffffffffffffffffffffffffffff1663175c0d16856040518263ffffffff167c01000000000000000000000000000000000000000000000000000000000281526004018082600019166000191681526020019150506040805180830381600087803b1580156109a357600080fd5b505af11580156109b7573d6000803e3d6000fd5b505050506040513d60408110156109cd57600080fd5b810190808051906020019092919080519060200190929190505050915091508134141515610a89576040517f08c379a00000000000000000000000000000000000000000000000000000000081526004018080602001828103825260378152602001807f596f75206469646e27742073656e642074686520726967687420616d6f756e7481526020017f207769746820796f7572207472616e73616374696f6e2e00000000000000000081525060400191505060405180910390fd5b60e0604051908101604052803373ffffffffffffffffffffffffffffffffffffffff1681526020018273ffffffffffffffffffffffffffffffffffffffff168152602001600115158152602001600015158152602001600015158152602001856000191681526020018481525060016000866000191660001916815260200190815260200160002060003373ffffffffffffffffffffffffffffffffffffffff1673ffffffffffffffffffffffffffffffffffffffff16815260200190815260200160002060008201518160000160006101000a81548173ffffffffffffffffffffffffffffffffffffffff021916908373ffffffffffffffffffffffffffffffffffffffff16021790555060208201518160010160006101000a81548173ffffffffffffffffffffffffffffffffffffffff021916908373ffffffffffffffffffffffffffffffffffffffff16021790555060408201518160010160146101000a81548160ff02191690831515021790555060608201518160010160156101000a81548160ff02191690831515021790555060808201518160010160166101000a81548160ff02191690831515021790555060a0820151816002019060001916905560c0820151816003019080519060200190610c68929190611d9d565b509050506004600085600019166000191681526020019081526020016000203390806001815401808255809150509060018203906000526020600020016000909192909190916101000a81548173ffffffffffffffffffffffffffffffffffffffff021916908373ffffffffffffffffffffffffffffffffffffffff16021790555050600360008273ffffffffffffffffffffffffffffffffffffffff1673ffffffffffffffffffffffffffffffffffffffff168152602001908152602001600020849080600181540180825580915050906001820390600052602060002001600090919290919091509060001916905550600260003373ffffffffffffffffffffffffffffffffffffffff1673ffffffffffffffffffffffffffffffffffffffff16815260200190815260200160002084908060018154018082558091505090600182039060005260206000200160009091929091909150906000191690555050505050565b600460205281600052604060002081815481101515610dea57fe5b906000526020600020016000915091509054906101000a900473ffffffffffffffffffffffffffffffffffffffff1681565b6000610e288383611b82565b1515610e9c576040517f08c379a000000000000000000000000000000000000000000000000000000000815260040180806020018281038252601b8152602001807f596f7520686176656e277420736861726564207468652064617461000000000081525060200191505060405180910390fd5b60016000846000191660001916815260200190815260200160002060008373ffffffffffffffffffffffffffffffffffffffff1673ffffffffffffffffffffffffffffffffffffffff16815260200190815260200160002060010160159054906101000a900460ff16151515610f7a576040517f08c379a000000000000000000000000000000000000000000000000000000000815260040180806020018281038252601e8152602001807f596f7520616c726561647920636c61696d656420796f7572206d6f6e6579000081525060200191505060405180910390fd5b600560009054906101000a900473ffffffffffffffffffffffffffffffffffffffff1673ffffffffffffffffffffffffffffffffffffffff1663175c0d16846040518263ffffffff167c01000000000000000000000000000000000000000000000000000000000281526004018082600019166000191681526020019150506040805180830381600087803b15801561101257600080fd5b505af1158015611026573d6000803e3d6000fd5b505050506040513d604081101561103c57600080fd5b8101908080519060200190929190805190602001909291905050505090503373ffffffffffffffffffffffffffffffffffffffff1660016000856000191660001916815260200190815260200160002060008473ffffffffffffffffffffffffffffffffffffffff1673ffffffffffffffffffffffffffffffffffffffff16815260200190815260200160002060010160009054906101000a900473ffffffffffffffffffffffffffffffffffffffff1673ffffffffffffffffffffffffffffffffffffffff16141515611178576040517f08c379a00000000000000000000000000000000000000000000000000000000081526004018080602001828103825260168152602001807f596f7520617265206e6f74207468652073656c6c65720000000000000000000081525060200191505060405180910390fd5b6001806000856000191660001916815260200190815260200160002060008473ffffffffffffffffffffffffffffffffffffffff1673ffffffffffffffffffffffffffffffffffffffff16815260200190815260200160002060010160156101000a81548160ff0219169083151502179055503373ffffffffffffffffffffffffffffffffffffffff166108fc829081150290604051600060405180830381858888f19350505050158015611231573d6000803e3d6000fd5b50505050565b60036020528160005260406000208181548110151561125257fe5b90600052602060002001600091509150505481565b6001602052816000526040600020602052806000526040600020600091509150508060000160009054906101000a900473ffffffffffffffffffffffffffffffffffffffff16908060010160009054906101000a900473ffffffffffffffffffffffffffffffffffffffff16908060010160149054906101000a900460ff16908060010160159054906101000a900460ff16908060010160169054906101000a900460ff1690806002015490806003018054600181600116156101000203166002900480601f0160208091040260200160405190810160405280929190818152602001828054600181600116156101000203166002900480156113ab5780601f10611380576101008083540402835291602001916113ab565b820191906000526020600020905b81548152906001019060200180831161138e57829003601f168201915b5050505050905087565b6113bf8133611b82565b151515611434576040517f08c379a00000000000000000000000000000000000000000000000000000000081526004018080602001828103825260178152602001807f446174612077617320616c72656164792073686172656400000000000000000081525060200191505060405180910390fd5b60016000826000191660001916815260200190815260200160002060003373ffffffffffffffffffffffffffffffffffffffff1673ffffffffffffffffffffffffffffffffffffffff168152602001908152602001600020600080820160006101000a81549073ffffffffffffffffffffffffffffffffffffffff02191690556001820160006101000a81549073ffffffffffffffffffffffffffffffffffffffff02191690556001820160146101000a81549060ff02191690556001820160156101000a81549060ff02191690556001820160166101000a81549060ff0219169055600282016000905560038201600061152f9190611e1d565b505050565b60016000836000191660001916815260200190815260200160002060008273ffffffffffffffffffffffffffffffffffffffff1673ffffffffffffffffffffffffffffffffffffffff16815260200190815260200160002060010160169054906101000a900460ff16151515611612576040517f08c379a000000000000000000000000000000000000000000000000000000000815260040180806020018281038252601f8152602001807f596f7520616c726561647920636c61696d656420796f757220746f6b656e730081525060200191505060405180910390fd5b3373ffffffffffffffffffffffffffffffffffffffff1660016000846000191660001916815260200190815260200160002060008373ffffffffffffffffffffffffffffffffffffffff1673ffffffffffffffffffffffffffffffffffffffff16815260200190815260200160002060000160009054906101000a900473ffffffffffffffffffffffffffffffffffffffff1673ffffffffffffffffffffffffffffffffffffffff16141515611730576040517f08c379a00000000000000000000000000000000000000000000000000000000081526004018080602001828103825260158152602001807f596f7520617265206e6f7420746865206275796572000000000000000000000081525060200191505060405180910390fd5b6001806000846000191660001916815260200190815260200160002060008373ffffffffffffffffffffffffffffffffffffffff1673ffffffffffffffffffffffffffffffffffffffff16815260200190815260200160002060010160166101000a81548160ff0219169083151502179055505050565b6000809054906101000a900473ffffffffffffffffffffffffffffffffffffffff1681565b60008060008060008060606000600160008b6000191660001916815260200190815260200160002060008a73ffffffffffffffffffffffffffffffffffffffff1673ffffffffffffffffffffffffffffffffffffffff16815260200190815260200160002090508060000160009054906101000a900473ffffffffffffffffffffffffffffffffffffffff168160010160009054906101000a900473ffffffffffffffffffffffffffffffffffffffff168260010160149054906101000a900460ff168360010160159054906101000a900460ff168460010160169054906101000a900460ff16856002015486600301808054600181600116156101000203166002900480601f0160208091040260200160405190810160405280929190818152602001828054600181600116156101000203166002900480156119515780601f1061192657610100808354040283529160200191611951565b820191906000526020600020905b81548152906001019060200180831161193457829003601f168201915b5050505050905097509750975097509750975097505092959891949750929550565b6060600260008373ffffffffffffffffffffffffffffffffffffffff1673ffffffffffffffffffffffffffffffffffffffff168152602001908152602001600020805480602002602001604051908101604052809291908181526020018280548015611a0257602002820191906000526020600020905b815460001916815260200190600101908083116119ea575b50505050509050919050565b6060600460008360001916600019168152602001908152602001600020805480602002602001604051908101604052809291908181526020018280548015611aab57602002820191906000526020600020905b8160009054906101000a900473ffffffffffffffffffffffffffffffffffffffff1673ffffffffffffffffffffffffffffffffffffffff1681526020019060010190808311611a61575b50505050509050919050565b600260205281600052604060002081815481101515611ad257fe5b90600052602060002001600091509150505481565b6060600360008373ffffffffffffffffffffffffffffffffffffffff1673ffffffffffffffffffffffffffffffffffffffff168152602001908152602001600020805480602002602001604051908101604052809291908181526020018280548015611b7657602002820191906000526020600020905b81546000191681526020019060010190808311611b5e575b50505050509050919050565b60008060008060009054906101000a900473ffffffffffffffffffffffffffffffffffffffff1673ffffffffffffffffffffffffffffffffffffffff1663cccb7c756040518163ffffffff167c0100000000000000000000000000000000000000000000000000000000028152600401602060405180830381600087803b158015611c0c57600080fd5b505af1158015611c20573d6000803e3d6000fd5b505050506040513d6020811015611c3657600080fd5b810190808051906020019092919050505091508173ffffffffffffffffffffffffffffffffffffffff16633ec50c6c86866040518363ffffffff167c01000000000000000000000000000000000000000000000000000000000281526004018083600019166000191681526020018273ffffffffffffffffffffffffffffffffffffffff1673ffffffffffffffffffffffffffffffffffffffff16815260200192505050600060405180830381600087803b158015611cf457600080fd5b505af1158015611d08573d6000803e3d6000fd5b505050506040513d6000823e3d601f19601f820116820180604052506040811015611d3257600080fd5b81019080805190602001909291908051640100000000811115611d5457600080fd5b82810190506020810184811115611d6a57600080fd5b8151856001820283011164010000000082111715611d8757600080fd5b5050929190505050509050809250505092915050565b828054600181600116156101000203166002900490600052602060002090601f016020900481019282601f10611dde57805160ff1916838001178555611e0c565b82800160010185558215611e0c579182015b82811115611e0b578251825591602001919060010190611df0565b5b509050611e199190611e65565b5090565b50805460018160011615610100020316600290046000825580601f10611e435750611e62565b601f016020900490600052602060002090810190611e619190611e65565b5b50565b611e8791905b80821115611e83576000816000905550600101611e6b565b5090565b905600a165627a7a723058208f5bf0921a9953fe88d676dcdab6d5b282d9ab2a6afd3bab7fa77fc987cf09340029",
  "source": "pragma solidity 0.4.24;\n\nimport \"./linnia-contracts/LinniaHub.sol\";\nimport \"./linnia-contracts/LinniaRecords.sol\";\nimport \"./linnia-contracts/LinniaUsers.sol\";\nimport \"node_modules/openzeppelin-solidity/contracts/math/SafeMath.sol\";\nimport \"./AplusListings.sol\";\n\ncontract AplusEscrows {\n    LinniaHub public linniaHub;\n    using SafeMath for uint;\n\n    struct Escrow {\n        address buyer;\n        address seller;\n        bool paid;\n        bool fulfilled;\n        bool tokensClaimed;\n        bytes32 listingID;\n        string publicEncKey;\n    }\n\n    // dataHash => buyer => escrow\n    mapping(bytes32 => mapping(address => Escrow)) public escrows;\n\n    // buyer => array of datahashes\n    mapping(address => bytes32[]) public dataHashesByBuyer;\n\n    // seller => array of datahashes\n    mapping(address => bytes32[]) public dataHashesBySeller;\n\n    // dataHash => array of buyers\n    mapping(bytes32 => address[]) public buyersByDataHash;\n\n    AplusListings aplusListings;\n\n    constructor(AplusListings _aplusListings, LinniaHub _linniaHub) public {\n        aplusListings = _aplusListings;\n        linniaHub = _linniaHub;\n    }\n\n    function doesPermissionExists(bytes32 dataHash, address viewer) \n        internal\n        view\n        returns (bool)\n    {\n        //Get LinniaPermissions\n        LinniaPermissions permissions = linniaHub.permissionsContract();\n        (bool canAccess, ) = permissions.permissions(dataHash, viewer);\n        return canAccess;\n        \n    }\n\n    function createEscrow(bytes32 dataHash, string publicEncKey) public payable {\n        (uint price, address owner) = aplusListings.getListing(dataHash);\n\n        require((msg.value == price), \"You didn't send the right amount with your transaction.\");\n\n        escrows[dataHash][msg.sender] = Escrow({\n            paid: true,\n            fulfilled: false,\n            tokensClaimed: false,\n            buyer: msg.sender,\n            seller: owner,\n            listingID: dataHash,\n            publicEncKey: publicEncKey\n        });\n\n        buyersByDataHash[dataHash].push(msg.sender);\n        dataHashesBySeller[owner].push(dataHash);\n        dataHashesByBuyer[msg.sender].push(dataHash);\n    }\n\n    function revokeEscrow(bytes32 dataHash) public {\n        require((!doesPermissionExists(dataHash, msg.sender)), \"Data was already shared\");\n        delete escrows[dataHash][msg.sender];\n    }\n\n    function claimMoney(bytes32 dataHash, address viewer) public {\n        require((doesPermissionExists(dataHash, viewer)), \"You haven't shared the data\");\n        require((!escrows[dataHash][viewer].fulfilled), \"You already claimed your money\");\n\n        (uint price, ) = aplusListings.getListing(dataHash);\n        require((escrows[dataHash][viewer].seller == msg.sender), \"You are not the seller\");\n\n        escrows[dataHash][viewer].fulfilled = true;\n\n        msg.sender.transfer(price);\n    }\n\n    function tokensAlreadyClaimed(bytes32 dataHash, address buyer) public view returns(bool) {\n        return escrows[dataHash][buyer].tokensClaimed;\n    }\n\n    function claimTokens(bytes32 dataHash, address buyer) public {\n        require((!escrows[dataHash][buyer].tokensClaimed), \"You already claimed your tokens\");\n        require((escrows[dataHash][buyer].buyer == msg.sender), \"You are not the buyer\");\n\n        escrows[dataHash][buyer].tokensClaimed = true;\n    }\n\n    function getEscrowDataHashesByBuyer(address buyer) public view returns (bytes32[]) {\n        return dataHashesByBuyer[buyer];\n    }\n\n    function getEscrowDataHashesBySeller(address seller) public view returns (bytes32[]) {\n        return dataHashesBySeller[seller];\n    }\n\n    function getEscrowForBuyer(bytes32 dataHash, address buyer) public view \n    returns (\n        address,\n        address,\n        bool,\n        bool,\n        bool,\n        bytes32,\n        string)\n    {\n        Escrow storage escrow = escrows[dataHash][buyer];\n        return (escrow.buyer, escrow.seller, escrow.paid, escrow.fulfilled, escrow.tokensClaimed, escrow.listingID, escrow.publicEncKey);\n    }\n\n    function getBuyersForDataHash(bytes32 dataHash) public view \n    returns (address[])\n    {\n        return buyersByDataHash[dataHash];\n    }\n\n}",
  "sourcePath": "/Users/vrotmanh/Desktop/Eth-Berlin/aplus-ddex/contracts/AplusEscrows.sol",
  "compiler": {
    "name": "solc",
    "version": "0.4.24+commit.e67f0147.Emscripten.clang"
  },
  "schemaVersion": "2.0.1",
  "updatedAt": "2018-09-07T23:08:04.052Z"
}