{
  "contractName": "AplusFaucet",
  "abi": [
    {
      "anonymous": false,
      "inputs": [
        {
          "indexed": true,
          "name": "_sender",
          "type": "address"
        },
        {
          "indexed": false,
          "name": "_value",
          "type": "uint256"
        },
        {
          "indexed": false,
          "name": "hash",
          "type": "bytes32"
        }
      ],
      "name": "withdrawlEvent",
      "type": "event"
    },
    {
      "constant": false,
      "inputs": [
        {
          "name": "addr",
          "type": "address"
        },
        {
          "name": "addrDdex",
          "type": "address"
        },
        {
          "name": "hash",
          "type": "bytes32"
        }
      ],
      "name": "withdrawl",
      "outputs": [],
      "payable": false,
      "stateMutability": "nonpayable",
      "type": "function"
    }
  ],
  "bytecode": "0x608060405234801561001057600080fd5b50610428806100206000396000f300608060405260043610610041576000357c0100000000000000000000000000000000000000000000000000000000900463ffffffff168063d41376e114610046575b600080fd5b34801561005257600080fd5b506100b5600480360381019080803573ffffffffffffffffffffffffffffffffffffffff169060200190929190803573ffffffffffffffffffffffffffffffffffffffff16906020019092919080356000191690602001909291905050506100b7565b005b6000806000859250600080856000191660001916815260200190815260200160002060003373ffffffffffffffffffffffffffffffffffffffff1673ffffffffffffffffffffffffffffffffffffffff16815260200190815260200160002060009054906101000a900460ff1615151561013057600080fd5b600060010284600019161415151561014757600080fd5b8491508173ffffffffffffffffffffffffffffffffffffffff16630481cb1b85336040518363ffffffff167c01000000000000000000000000000000000000000000000000000000000281526004018083600019166000191681526020018273ffffffffffffffffffffffffffffffffffffffff1673ffffffffffffffffffffffffffffffffffffffff16815260200192505050602060405180830381600087803b1580156101f557600080fd5b505af1158015610209573d6000803e3d6000fd5b505050506040513d602081101561021f57600080fd5b810190808051906020019092919050505015151561023c57600080fd5b6001600080866000191660001916815260200190815260200160002060003373ffffffffffffffffffffffffffffffffffffffff1673ffffffffffffffffffffffffffffffffffffffff16815260200190815260200160002060006101000a81548160ff021916908315150217905550678ac7230489e8000090508273ffffffffffffffffffffffffffffffffffffffff1663a9059cbb33836040518363ffffffff167c0100000000000000000000000000000000000000000000000000000000028152600401808373ffffffffffffffffffffffffffffffffffffffff1673ffffffffffffffffffffffffffffffffffffffff16815260200182815260200192505050602060405180830381600087803b15801561035a57600080fd5b505af115801561036e573d6000803e3d6000fd5b505050506040513d602081101561038457600080fd5b8101908080519060200190929190505050503373ffffffffffffffffffffffffffffffffffffffff167f650e921eeeeea803f25c7b4a63f0638e38e9f95cd86e213fe4565efc833a874682866040518083815260200182600019166000191681526020019250505060405180910390a25050505050505600a165627a7a72305820bd07e5220be3c0c55e8a1c94b20cfc95efeca07b75e1b97bfbecc3c2b1486b000029",
  "source": "pragma solidity ^0.4.20;\n\n////\ncontract ERC20 {\n    function transfer(address _to, uint256 _value) public returns (bool success);\n}\n\ncontract AplusEscrows {\n\n    function tokensAlreadyClaimed(bytes32 dataHash, address buyer) public view returns(bool);\n}\n\ncontract AplusFaucet {\n    event withdrawlEvent(address indexed _sender, uint256 _value, bytes32 hash);\n    \n    mapping (bytes32 => mapping (address => bool)) alreadyClaimed;\n    \n    function withdrawl(address addr, address addrDdex, bytes32 hash) public {\n         ERC20 token = ERC20(addr);\n         require(!alreadyClaimed[hash][msg.sender]);\n         require(hash != 0x0);\n         AplusEscrows ae = AplusEscrows(addrDdex);\n         require(!ae.tokensAlreadyClaimed(hash, msg.sender));\n         \n         alreadyClaimed[hash][msg.sender] = true;\n         uint256 reward = 10 ether;\n         token.transfer(msg.sender, reward);\n         emit withdrawlEvent(msg.sender, reward, hash);\n    }\n}\n",
  "sourcePath": "/Users/vrotmanh/Desktop/Eth-Berlin/aplus-ddex/contracts/faucetContracts/AplusFaucet.sol",
  "compiler": {
    "name": "solc",
    "version": "0.4.24+commit.e67f0147.Emscripten.clang"
  },
  "schemaVersion": "2.0.1",
  "updatedAt": "2018-09-09T01:41:41.746Z"
}