{
  "contractName": "DDexEscrows",
  "abi": [
    {
      "constant": true,
      "inputs": [
        {
          "name": "",
          "type": "bytes32"
        },
        {
          "name": "",
          "type": "uint256"
        }
      ],
      "name": "buyersByDataHash",
      "outputs": [
        {
          "name": "",
          "type": "address"
        }
      ],
      "payable": false,
      "stateMutability": "view",
      "type": "function"
    },
    {
      "constant": true,
      "inputs": [
        {
          "name": "",
          "type": "address"
        },
        {
          "name": "",
          "type": "uint256"
        }
      ],
      "name": "dataHashesBySeller",
      "outputs": [
        {
          "name": "",
          "type": "bytes32"
        }
      ],
      "payable": false,
      "stateMutability": "view",
      "type": "function"
    },
    {
      "constant": true,
      "inputs": [
        {
          "name": "",
          "type": "bytes32"
        },
        {
          "name": "",
          "type": "address"
        }
      ],
      "name": "escrows",
      "outputs": [
        {
          "name": "buyer",
          "type": "address"
        },
        {
          "name": "seller",
          "type": "address"
        },
        {
          "name": "paid",
          "type": "bool"
        },
        {
          "name": "fulfilled",
          "type": "bool"
        },
        {
          "name": "listingID",
          "type": "bytes32"
        },
        {
          "name": "publicEncKey",
          "type": "string"
        }
      ],
      "payable": false,
      "stateMutability": "view",
      "type": "function"
    },
    {
      "constant": true,
      "inputs": [],
      "name": "linniaHub",
      "outputs": [
        {
          "name": "",
          "type": "address"
        }
      ],
      "payable": false,
      "stateMutability": "view",
      "type": "function"
    },
    {
      "constant": true,
      "inputs": [
        {
          "name": "",
          "type": "address"
        },
        {
          "name": "",
          "type": "uint256"
        }
      ],
      "name": "dataHashesByBuyer",
      "outputs": [
        {
          "name": "",
          "type": "bytes32"
        }
      ],
      "payable": false,
      "stateMutability": "view",
      "type": "function"
    },
    {
      "inputs": [
        {
          "name": "_ddexListings",
          "type": "address"
        },
        {
          "name": "_linniaHub",
          "type": "address"
        }
      ],
      "payable": false,
      "stateMutability": "nonpayable",
      "type": "constructor"
    },
    {
      "constant": false,
      "inputs": [
        {
          "name": "dataHash",
          "type": "bytes32"
        },
        {
          "name": "publicEncKey",
          "type": "string"
        }
      ],
      "name": "createEscrow",
      "outputs": [],
      "payable": true,
      "stateMutability": "payable",
      "type": "function"
    },
    {
      "constant": false,
      "inputs": [
        {
          "name": "dataHash",
          "type": "bytes32"
        }
      ],
      "name": "revokeEscrow",
      "outputs": [],
      "payable": false,
      "stateMutability": "nonpayable",
      "type": "function"
    },
    {
      "constant": false,
      "inputs": [
        {
          "name": "dataHash",
          "type": "bytes32"
        },
        {
          "name": "viewer",
          "type": "address"
        }
      ],
      "name": "claimMoney",
      "outputs": [],
      "payable": false,
      "stateMutability": "nonpayable",
      "type": "function"
    },
    {
      "constant": true,
      "inputs": [
        {
          "name": "buyer",
          "type": "address"
        }
      ],
      "name": "getEscrowDataHashesByBuyer",
      "outputs": [
        {
          "name": "",
          "type": "bytes32[]"
        }
      ],
      "payable": false,
      "stateMutability": "view",
      "type": "function"
    },
    {
      "constant": true,
      "inputs": [
        {
          "name": "seller",
          "type": "address"
        }
      ],
      "name": "getEscrowDataHashesBySeller",
      "outputs": [
        {
          "name": "",
          "type": "bytes32[]"
        }
      ],
      "payable": false,
      "stateMutability": "view",
      "type": "function"
    },
    {
      "constant": true,
      "inputs": [
        {
          "name": "dataHash",
          "type": "bytes32"
        },
        {
          "name": "buyer",
          "type": "address"
        }
      ],
      "name": "getEscrowForBuyer",
      "outputs": [
        {
          "name": "",
          "type": "address"
        },
        {
          "name": "",
          "type": "address"
        },
        {
          "name": "",
          "type": "bool"
        },
        {
          "name": "",
          "type": "bool"
        },
        {
          "name": "",
          "type": "bytes32"
        },
        {
          "name": "",
          "type": "string"
        }
      ],
      "payable": false,
      "stateMutability": "view",
      "type": "function"
    },
    {
      "constant": true,
      "inputs": [
        {
          "name": "dataHash",
          "type": "bytes32"
        }
      ],
      "name": "getBuyersForDataHash",
      "outputs": [
        {
          "name": "",
          "type": "address[]"
        }
      ],
      "payable": false,
      "stateMutability": "view",
      "type": "function"
    }
  ],
  "bytecode": "0x608060405234801561001057600080fd5b50604051604080611b52833981018060405281019080805190602001909291908051906020019092919050505081600560006101000a81548173ffffffffffffffffffffffffffffffffffffffff021916908373ffffffffffffffffffffffffffffffffffffffff160217905550806000806101000a81548173ffffffffffffffffffffffffffffffffffffffff021916908373ffffffffffffffffffffffffffffffffffffffff1602179055505050611a83806100cf6000396000f3006080604052600436106100ba576000357c0100000000000000000000000000000000000000000000000000000000900463ffffffff1680631da095e4146100bf57806323bf361a1461012957806336848de0146101a45780633c9ae606146101f5578063411d1df51461025e57806344ebe94b146103b35780636429a93f146103e457806366bd467a1461043b57806376e30ea1146105905780638db8b617146106285780638ecfb77e146106ae578063a0bcb64014610717575b600080fd5b6101276004803603810190808035600019169060200190929190803590602001908201803590602001908080601f01602080910402602001604051908101604052809392919081815260200183838082843782019150505050505091929192905050506107af565b005b34801561013557600080fd5b50610162600480360381019080803560001916906020019092919080359060200190929190505050610c4d565b604051808273ffffffffffffffffffffffffffffffffffffffff1673ffffffffffffffffffffffffffffffffffffffff16815260200191505060405180910390f35b3480156101b057600080fd5b506101f36004803603810190808035600019169060200190929190803573ffffffffffffffffffffffffffffffffffffffff169060200190929190505050610c9a565b005b34801561020157600080fd5b50610240600480360381019080803573ffffffffffffffffffffffffffffffffffffffff169060200190929190803590602001909291905050506110b5565b60405180826000191660001916815260200191505060405180910390f35b34801561026a57600080fd5b506102ad6004803603810190808035600019169060200190929190803573ffffffffffffffffffffffffffffffffffffffff1690602001909291905050506110e5565b604051808773ffffffffffffffffffffffffffffffffffffffff1673ffffffffffffffffffffffffffffffffffffffff1681526020018673ffffffffffffffffffffffffffffffffffffffff1673ffffffffffffffffffffffffffffffffffffffff1681526020018515151515815260200184151515158152602001836000191660001916815260200180602001828103825283818151815260200191508051906020019080838360005b83811015610373578082015181840152602081019050610358565b50505050905090810190601f1680156103a05780820380516001836020036101000a031916815260200191505b5097505050505050505060405180910390f35b3480156103bf57600080fd5b506103e26004803603810190808035600019169060200190929190505050611220565b005b3480156103f057600080fd5b506103f961138b565b604051808273ffffffffffffffffffffffffffffffffffffffff1673ffffffffffffffffffffffffffffffffffffffff16815260200191505060405180910390f35b34801561044757600080fd5b5061048a6004803603810190808035600019169060200190929190803573ffffffffffffffffffffffffffffffffffffffff1690602001909291905050506113b0565b604051808773ffffffffffffffffffffffffffffffffffffffff1673ffffffffffffffffffffffffffffffffffffffff1681526020018673ffffffffffffffffffffffffffffffffffffffff1673ffffffffffffffffffffffffffffffffffffffff1681526020018515151515815260200184151515158152602001836000191660001916815260200180602001828103825283818151815260200191508051906020019080838360005b83811015610550578082015181840152602081019050610535565b50505050905090810190601f16801561057d5780820380516001836020036101000a031916815260200191505b5097505050505050505060405180910390f35b34801561059c57600080fd5b506105d1600480360381019080803573ffffffffffffffffffffffffffffffffffffffff169060200190929190505050611540565b6040518080602001828103825283818151815260200191508051906020019060200280838360005b838110156106145780820151818401526020810190506105f9565b505050509050019250505060405180910390f35b34801561063457600080fd5b5061065760048036038101908080356000191690602001909291905050506115db565b6040518080602001828103825283818151815260200191508051906020019060200280838360005b8381101561069a57808201518184015260208101905061067f565b505050509050019250505060405180910390f35b3480156106ba57600080fd5b506106f9600480360381019080803573ffffffffffffffffffffffffffffffffffffffff16906020019092919080359060200190929190505050611684565b60405180826000191660001916815260200191505060405180910390f35b34801561072357600080fd5b50610758600480360381019080803573ffffffffffffffffffffffffffffffffffffffff1690602001909291905050506116b4565b6040518080602001828103825283818151815260200191508051906020019060200280838360005b8381101561079b578082015181840152602081019050610780565b505050509050019250505060405180910390f35b600080600560009054906101000a900473ffffffffffffffffffffffffffffffffffffffff1673ffffffffffffffffffffffffffffffffffffffff1663175c0d16856040518263ffffffff167c01000000000000000000000000000000000000000000000000000000000281526004018082600019166000191681526020019150506040805180830381600087803b15801561084a57600080fd5b505af115801561085e573d6000803e3d6000fd5b505050506040513d604081101561087457600080fd5b810190808051906020019092919080519060200190929190505050915091508134141515610930576040517f08c379a00000000000000000000000000000000000000000000000000000000081526004018080602001828103825260378152602001807f596f75206469646e27742073656e642074686520726967687420616d6f756e7481526020017f207769746820796f7572207472616e73616374696f6e2e00000000000000000081525060400191505060405180910390fd5b60c0604051908101604052803373ffffffffffffffffffffffffffffffffffffffff1681526020018273ffffffffffffffffffffffffffffffffffffffff168152602001600115158152602001600015158152602001856000191681526020018481525060016000866000191660001916815260200190815260200160002060003373ffffffffffffffffffffffffffffffffffffffff1673ffffffffffffffffffffffffffffffffffffffff16815260200190815260200160002060008201518160000160006101000a81548173ffffffffffffffffffffffffffffffffffffffff021916908373ffffffffffffffffffffffffffffffffffffffff16021790555060208201518160010160006101000a81548173ffffffffffffffffffffffffffffffffffffffff021916908373ffffffffffffffffffffffffffffffffffffffff16021790555060408201518160010160146101000a81548160ff02191690831515021790555060608201518160010160156101000a81548160ff0219169083151502179055506080820151816002019060001916905560a0820151816003019080519060200190610ae692919061196a565b509050506004600085600019166000191681526020019081526020016000203390806001815401808255809150509060018203906000526020600020016000909192909190916101000a81548173ffffffffffffffffffffffffffffffffffffffff021916908373ffffffffffffffffffffffffffffffffffffffff16021790555050600360008273ffffffffffffffffffffffffffffffffffffffff1673ffffffffffffffffffffffffffffffffffffffff168152602001908152602001600020849080600181540180825580915050906001820390600052602060002001600090919290919091509060001916905550600260003373ffffffffffffffffffffffffffffffffffffffff1673ffffffffffffffffffffffffffffffffffffffff16815260200190815260200160002084908060018154018082558091505090600182039060005260206000200160009091929091909150906000191690555050505050565b600460205281600052604060002081815481101515610c6857fe5b906000526020600020016000915091509054906101000a900473ffffffffffffffffffffffffffffffffffffffff1681565b6000610ca6838361174f565b1515610d1a576040517f08c379a000000000000000000000000000000000000000000000000000000000815260040180806020018281038252601b8152602001807f596f7520686176656e277420736861726564207468652064617461000000000081525060200191505060405180910390fd5b60016000846000191660001916815260200190815260200160002060008373ffffffffffffffffffffffffffffffffffffffff1673ffffffffffffffffffffffffffffffffffffffff16815260200190815260200160002060010160159054906101000a900460ff16151515610df8576040517f08c379a000000000000000000000000000000000000000000000000000000000815260040180806020018281038252601e8152602001807f596f7520616c726561647920636c61696d656420796f7572206d6f6e6579000081525060200191505060405180910390fd5b600560009054906101000a900473ffffffffffffffffffffffffffffffffffffffff1673ffffffffffffffffffffffffffffffffffffffff1663175c0d16846040518263ffffffff167c01000000000000000000000000000000000000000000000000000000000281526004018082600019166000191681526020019150506040805180830381600087803b158015610e9057600080fd5b505af1158015610ea4573d6000803e3d6000fd5b505050506040513d6040811015610eba57600080fd5b8101908080519060200190929190805190602001909291905050505090503373ffffffffffffffffffffffffffffffffffffffff1660016000856000191660001916815260200190815260200160002060008473ffffffffffffffffffffffffffffffffffffffff1673ffffffffffffffffffffffffffffffffffffffff16815260200190815260200160002060010160009054906101000a900473ffffffffffffffffffffffffffffffffffffffff1673ffffffffffffffffffffffffffffffffffffffff16141515610ff6576040517f08c379a00000000000000000000000000000000000000000000000000000000081526004018080602001828103825260168152602001807f596f7520617265206e6f74207468652073656c6c65720000000000000000000081525060200191505060405180910390fd5b6001806000856000191660001916815260200190815260200160002060008473ffffffffffffffffffffffffffffffffffffffff1673ffffffffffffffffffffffffffffffffffffffff16815260200190815260200160002060010160156101000a81548160ff0219169083151502179055503373ffffffffffffffffffffffffffffffffffffffff166108fc829081150290604051600060405180830381858888f193505050501580156110af573d6000803e3d6000fd5b50505050565b6003602052816000526040600020818154811015156110d057fe5b90600052602060002001600091509150505481565b6001602052816000526040600020602052806000526040600020600091509150508060000160009054906101000a900473ffffffffffffffffffffffffffffffffffffffff16908060010160009054906101000a900473ffffffffffffffffffffffffffffffffffffffff16908060010160149054906101000a900460ff16908060010160159054906101000a900460ff1690806002015490806003018054600181600116156101000203166002900480601f0160208091040260200160405190810160405280929190818152602001828054600181600116156101000203166002900480156112165780601f106111eb57610100808354040283529160200191611216565b820191906000526020600020905b8154815290600101906020018083116111f957829003601f168201915b5050505050905086565b61122a813361174f565b15151561129f576040517f08c379a00000000000000000000000000000000000000000000000000000000081526004018080602001828103825260178152602001807f446174612077617320616c72656164792073686172656400000000000000000081525060200191505060405180910390fd5b60016000826000191660001916815260200190815260200160002060003373ffffffffffffffffffffffffffffffffffffffff1673ffffffffffffffffffffffffffffffffffffffff168152602001908152602001600020600080820160006101000a81549073ffffffffffffffffffffffffffffffffffffffff02191690556001820160006101000a81549073ffffffffffffffffffffffffffffffffffffffff02191690556001820160146101000a81549060ff02191690556001820160156101000a81549060ff0219169055600282016000905560038201600061138691906119ea565b505050565b6000809054906101000a900473ffffffffffffffffffffffffffffffffffffffff1681565b600080600080600060606000600160008a6000191660001916815260200190815260200160002060008973ffffffffffffffffffffffffffffffffffffffff1673ffffffffffffffffffffffffffffffffffffffff16815260200190815260200160002090508060000160009054906101000a900473ffffffffffffffffffffffffffffffffffffffff168160010160009054906101000a900473ffffffffffffffffffffffffffffffffffffffff168260010160149054906101000a900460ff168360010160159054906101000a900460ff16846002015485600301808054600181600116156101000203166002900480601f0160208091040260200160405190810160405280929190818152602001828054600181600116156101000203166002900480156115225780601f106114f757610100808354040283529160200191611522565b820191906000526020600020905b81548152906001019060200180831161150557829003601f168201915b50505050509050965096509650965096509650509295509295509295565b6060600260008373ffffffffffffffffffffffffffffffffffffffff1673ffffffffffffffffffffffffffffffffffffffff1681526020019081526020016000208054806020026020016040519081016040528092919081815260200182805480156115cf57602002820191906000526020600020905b815460001916815260200190600101908083116115b7575b50505050509050919050565b606060046000836000191660001916815260200190815260200160002080548060200260200160405190810160405280929190818152602001828054801561167857602002820191906000526020600020905b8160009054906101000a900473ffffffffffffffffffffffffffffffffffffffff1673ffffffffffffffffffffffffffffffffffffffff168152602001906001019080831161162e575b50505050509050919050565b60026020528160005260406000208181548110151561169f57fe5b90600052602060002001600091509150505481565b6060600360008373ffffffffffffffffffffffffffffffffffffffff1673ffffffffffffffffffffffffffffffffffffffff16815260200190815260200160002080548060200260200160405190810160405280929190818152602001828054801561174357602002820191906000526020600020905b8154600019168152602001906001019080831161172b575b50505050509050919050565b60008060008060009054906101000a900473ffffffffffffffffffffffffffffffffffffffff1673ffffffffffffffffffffffffffffffffffffffff1663cccb7c756040518163ffffffff167c0100000000000000000000000000000000000000000000000000000000028152600401602060405180830381600087803b1580156117d957600080fd5b505af11580156117ed573d6000803e3d6000fd5b505050506040513d602081101561180357600080fd5b810190808051906020019092919050505091508173ffffffffffffffffffffffffffffffffffffffff16633ec50c6c86866040518363ffffffff167c01000000000000000000000000000000000000000000000000000000000281526004018083600019166000191681526020018273ffffffffffffffffffffffffffffffffffffffff1673ffffffffffffffffffffffffffffffffffffffff16815260200192505050600060405180830381600087803b1580156118c157600080fd5b505af11580156118d5573d6000803e3d6000fd5b505050506040513d6000823e3d601f19601f8201168201806040525060408110156118ff57600080fd5b8101908080519060200190929190805164010000000081111561192157600080fd5b8281019050602081018481111561193757600080fd5b815185600182028301116401000000008211171561195457600080fd5b5050929190505050509050809250505092915050565b828054600181600116156101000203166002900490600052602060002090601f016020900481019282601f106119ab57805160ff19168380011785556119d9565b828001600101855582156119d9579182015b828111156119d85782518255916020019190600101906119bd565b5b5090506119e69190611a32565b5090565b50805460018160011615610100020316600290046000825580601f10611a105750611a2f565b601f016020900490600052602060002090810190611a2e9190611a32565b5b50565b611a5491905b80821115611a50576000816000905550600101611a38565b5090565b905600a165627a7a723058204b889299fb7b57d5ee72a225fb6e95469ba8c92ca9c71cb78d88534c187ff9a00029",
  "source": "pragma solidity 0.4.24;\n\nimport \"./linnia-contracts/LinniaHub.sol\";\nimport \"./linnia-contracts/LinniaRecords.sol\";\nimport \"./linnia-contracts/LinniaUsers.sol\";\nimport \"node_modules/openzeppelin-solidity/contracts/math/SafeMath.sol\";\nimport \"./DDexListings.sol\";\n\ncontract DDexEscrows {\n    LinniaHub public linniaHub;\n    using SafeMath for uint;\n\n    struct Escrow {\n        address buyer;\n        address seller;\n        bool paid;\n        bool fulfilled;\n        bytes32 listingID;\n        string publicEncKey;\n    }\n\n    // dataHash => buyer => escrow\n    mapping(bytes32 => mapping(address => Escrow)) public escrows;\n\n    // buyer => array of datahashes\n    mapping(address => bytes32[]) public dataHashesByBuyer;\n\n    // seller => array of datahashes\n    mapping(address => bytes32[]) public dataHashesBySeller;\n\n    // dataHash => array of buyers\n    mapping(bytes32 => address[]) public buyersByDataHash;\n\n    DDexListings ddexListings;\n\n    constructor(DDexListings _ddexListings, LinniaHub _linniaHub) public {\n        ddexListings = _ddexListings;\n        linniaHub = _linniaHub;\n    }\n\n    function doesPermissionExists(bytes32 dataHash, address viewer) \n        internal\n        returns (bool)\n    {\n        //Get LinniaPermissions\n        LinniaPermissions permissions = linniaHub.permissionsContract();\n        (bool canAccess, ) = permissions.permissions(dataHash, viewer);\n        return canAccess;\n        \n    }\n\n    function createEscrow(bytes32 dataHash, string publicEncKey) public payable {\n        (uint price, address owner) = ddexListings.getListing(dataHash);\n\n        require((msg.value == price), \"You didn't send the right amount with your transaction.\");\n\n        escrows[dataHash][msg.sender] = Escrow({\n            paid: true,\n            fulfilled: false,\n            buyer: msg.sender,\n            seller: owner,\n            listingID: dataHash,\n            publicEncKey: publicEncKey\n        });\n\n        buyersByDataHash[dataHash].push(msg.sender);\n        dataHashesBySeller[owner].push(dataHash);\n        dataHashesByBuyer[msg.sender].push(dataHash);\n    }\n\n    function revokeEscrow(bytes32 dataHash) public {\n        require((!doesPermissionExists(dataHash, msg.sender)), \"Data was already shared\");\n        delete escrows[dataHash][msg.sender];\n    }\n\n    function claimMoney(bytes32 dataHash, address viewer) public {\n        require((doesPermissionExists(dataHash, viewer)), \"You haven't shared the data\");\n        require((!escrows[dataHash][viewer].fulfilled), \"You already claimed your money\");\n\n        (uint price, ) = ddexListings.getListing(dataHash);\n        require((escrows[dataHash][viewer].seller == msg.sender), \"You are not the seller\");\n\n        escrows[dataHash][viewer].fulfilled = true;\n\n        msg.sender.transfer(price);\n    }\n\n    function getEscrowDataHashesByBuyer(address buyer) public view returns (bytes32[]) {\n        return dataHashesByBuyer[buyer];\n    }\n\n    function getEscrowDataHashesBySeller(address seller) public view returns (bytes32[]) {\n        return dataHashesBySeller[seller];\n    }\n\n    function getEscrowForBuyer(bytes32 dataHash, address buyer) public view \n    returns (\n        address,\n        address,\n        bool,\n        bool,\n        bytes32,\n        string)\n    {\n        Escrow storage escrow = escrows[dataHash][buyer];\n        return (escrow.buyer, escrow.seller, escrow.paid, escrow.fulfilled, escrow.listingID, escrow.publicEncKey);\n    }\n\n    function getBuyersForDataHash(bytes32 dataHash) public view \n    returns (address[])\n    {\n        return buyersByDataHash[dataHash];\n    }\n\n}",
  "sourcePath": "/Users/blaushmild/projects/ddex/ddex-smart-contacts/contracts/DDexEscrows.sol",
  "compiler": {
    "name": "solc",
    "version": "0.4.24+commit.e67f0147.Emscripten.clang"
  },
  "schemaVersion": "2.0.1",
  "updatedAt": "2018-08-02T16:48:58.604Z"
}